:020000040800F2
:1000000020040020A1010008F5030008ED0300080A
:10001000F1030008FF010008390800080000000093
:10002000000000000000000000000000C106000801
:10003000F1020008000000009D060008B10700085A
:10004000BB010008BB010008BB010008BB010008A0
:10005000BB010008BB010008BB010008BB01000890
:10006000BB010008BB010008BB010008BB01000880
:10007000BB010008BB010008BB010008BB01000870
:10008000BB010008BB010008BB010008BB01000860
:10009000BB010008BB010008BB010008BB01000850
:1000A000BB010008BB010008BB010008BB01000840
:1000B000BB010008BB010008BB010008BB01000830
:1000C000BB010008BB010008BB010008BB01000820
:1000D000BB010008BB010008BB010008BB01000810
:1000E000BB010008BB010008BB010008BB01000800
:1000F000BB010008BB010008BB010008BB010008F0
:10010000BB010008BB010008BB010008BB010008DF
:10011000BB010008BB010008BB010008BB010008CF
:1001200005020008BB010008BB010008BB01000874
:10013000BB010008BB010008BB010008BB010008AF
:10014000BB010008BB010008BB010008BB0100089F
:10015000BB010008BB010008BB010008BB0100088F
:10016000BB010008BB010008BB010008BB0100087F
:10017000BB010008BB010008BB010008BB0100086F
:10018000BB010008BB010008DFF810D000F01AF82E
:10019000004800475B080008AFF3008020040020FF
:1001A0000648804706480047FEE7FEE7FEE7FEE711
:1001B000FEE7FEE7FEE7FEE7FEE7FEE7B907000819
:1001C00089010008064C074D06E0E06840F0010395
:1001D00094E8070098471034AC42F6D3FFF7D8FFF5
:1001E000640E0008840E000821B1826842F001020A
:1001F000826003E0826822F001028260704700BFE3
:10020000FEE7000010B50A490A4800F03FF870B157
:100210000749084800F014F800210748FFF7E4FFF9
:100220000021044800F026F801200449088010BD90
:1002300020800010106402400020014004000020D3
:100240000246094B9A4201D2084801E0064810389C
:1002500001F000531BB1064B0B40C36002E0044B9E
:100260000B40836070470000106402400060024051
:100270007D0F7D0F21B1026842F00102026003E0B0
:10028000026822F0010202607047000070B5024669
:10029000002000240025124EB24201D2114B01E091
:1002A0000F4B103B104E0E4036B11E2606EAD124ED
:1002B000166806EA040502E0566906F0800501F0BA
:1002C00000560EB15C6800E01C68084E344004EA39
:1002D000010616B10DB1012000E0002070BD000044
:1002E00010640240006002403C0F3C0F7D0F7D0F08
:1002F0007047000030B513480068134AB0FBF2F1B4
:10030000481EB0F1807F00D31BE0481E4FF0E02272
:10031000506150170F22002807DA13071D0E0B4BF0
:1003200000F00F04241F1D5503E013071C0E084B9B
:100330001C5400BF00204FF0E022906107201061A4
:1003400000BF30BD0800002040420F0018ED00E063
:1003500000E400E0F0B50A4600210023002400BFBD
:100360003DE0012505FA01F3156805EA03049C4206
:1003700034D105684F000326BE40B54305601579AA
:100380004E00B5400668354305601579012D02D051
:100390001579022D16D185684F000326BE40B5435E
:1003A000856055794E00B54086683543856045685F
:1003B00001268E40B5434560456896798E40B6B2B9
:1003C00035434560C5684F000326BE40B543C56050
:1003D000D5794E00B540C6683543C560491C102923
:1003E000BFD3F0BD418370470183704700BFFEE774
:1003F00000BFFEE7704770B500240EE000212046E4
:1004000000F0E1F8002504E0002000F037F9681C56
:10041000C5B2802DF8DB601CC4B2082CEEDB70BDC9
:100420001CB50121202000F03BF94FF440700090F2
:1004300001208DF804008DF8060002208DF80500DB
:1004400069460748FFF786FF4FF480710448FFF7BD
:10045000CBFF4FF400710248FFF7C6FF1CBD000040
:100460000014024070B50446002519E004F0400075
:1004700028B14FF400711148FFF7B6FF04E04FF4C4
:1004800000710E48FFF7AEFF4FF480710B48FFF785
:10049000ABFF4FF480710948FFF7A4FF681CC5B299
:1004A000082DE3DB4FF480710448FFF79DFF4FF404
:1004B00080710248FFF796FF70BD000000140240F3
:1004C00010B54FF400710948FFF78EFF4FF48071AB
:1004D0000648FFF789FF4FF400710448FFF782FFD9
:1004E0004FF480710148FFF77DFF10BD00140240FA
:1004F00010B54FF400710748FFF774FF4FF4807197
:100500000448FFF771FF4FF400710248FFF76CFFDA
:1005100010BD00000014024070B5002406E0002564
:1005200000E06D1CB5F57A7FFBD3641CB4F57A7FCF
:10053000F5D3FFF775FFAE2000F090F8D52000F05E
:100540008DF8802000F08AF8A82000F087F83F207E
:1005500000F084F8D32000F081F8002000F07EF84D
:10056000402000F07BF8A12000F078F8C82000F0CF
:1005700075F8DA2000F072F8122000F06FF8812090
:1005800000F06CF8CF2000F069F8D92000F066F890
:10059000F12000F063F8DB2000F060F8302000F07C
:1005A0005DF8A42000F05AF8A62000F057F88D203E
:1005B00000F054F8142000F051F8AF2000F04EF88D
:1005C000FFF719FF70BD70B505460C4645F0B00049
:1005D00000F044F8102141EA141000F03FF804F054
:1005E0000F0000F03BF870BD2DE9F04105460E46C6
:1005F0001746721ED206110E6A1E5206100EFFF723
:10060000E2FF002409E0A7F12001134A02EB0111E7
:10061000085D00F033F8601CC4B2082CF3DB721ED6
:10062000D206110E6A1E012303EB4202D0B2FFF77D
:10063000CAFF00240BE0A7F12001074A02EB0112D8
:1006400004F10801505C00F019F8601CC4B2082CD9
:10065000F1DBBDE8F08100007408000810B5044625
:10066000FFF72EFF7820FFF7FDFE0020FFF7FAFED0
:100670002046FFF7F7FEFFF73BFF10BD10B504461D
:10068000FFF71EFF7820FFF7EDFE4020FFF7EAFEA0
:100690002046FFF7E7FEFFF72BFF10BD7047000075
:1006A00029B1064A12680243044B1A6004E0034A67
:1006B00012688243014B1A607047000030380240D4
:1006C000704700000CB5002001900090344800688D
:1006D00040F480303249086000BF3148006800F4BF
:1006E000003000900198401C0190009818B90198C2
:1006F000B0F5A04FF1D12A48006800F4003010B1E5
:100700000120009001E0002000900098012846D1CF
:1007100023484030006840F0805021494031086053
:100720002048006840F440401E4908601C480830DA
:1007300000681B49083108600846006840F4004022
:1007400008600846006840F4A05008601648091F79
:100750000860081F006840F08070091F086000BF33
:100760000F48006800F000700028F9D040F20570D2
:100770000E4908600A480830006820F00300084964
:10078000083108600846006840F00200086000BFB9
:1007900003480830006800F00C000828F8D10CBDB0
:1007A000003802400070004008544007003C0240FE
:1007B00010B500F035F810BD10B51548006840F4CC
:1007C0007000134908601348006840F001001149A7
:1007D000086000200F49083108600E4800680E4983
:1007E00008400C4908600D48091D0860081F006892
:1007F00020F48020091F0860002006490C310860A1
:10080000FFF760FF4FF0006001498039086010BDBC
:1008100088ED00E000380240FFFFF6FE10300024B3
:100820000448006820B103480068401E0149086080
:10083000704700000000002000BFFEE702E008C88B
:10084000121F08C1002AFAD170477047002001E04A
:1008500001C1121F002AFBD17047FFF74BFDFFF7C4
:100860005BFEFFF7C8FD412201210846FFF7BCFEF1
:1008700000BFFEE7000000000000000000000000D4
:1008800000000000000000F800000000000000333D
:100890003000000000100C06100C060000000000E4
:1008A0000000000040C07840C0784000043F0404CD
:1008B0003F040400007088FC08300000001820FF8E
:1008C000211E0000F008F000E018000000211C03C9
:1008D0001E211E0000F00888700000001E21232445
:1008E0001927211010160E00000000000000000063
:1008F00000000000000000E01804020000000007F3
:100900001820400000020418E000000000402018F9
:1009100007000000404080F0804040000202010FCC
:1009200001020200000000F0000000000101011FB0
:1009300001010100000000000000000080B0700014
:1009400000000000000000000000000000010101A4
:100950000101010100000000000000000030300033
:10096000000000000000000080601804006018060D
:100970000100000000E010080810E000000F102047
:1009800020100F00001010F8000000000020203F91
:10099000202000000070080808887000003028241B
:1009A00022213000003008888848300000182020BC
:1009B00020110E000000C02010F8000000070424E1
:1009C000243F240000F80888880808000019212026
:1009D00020110E0000E0108888180000000F112080
:1009E00020110E0000380808C83808000000003F39
:1009F000000000000070880808887000001C222198
:100A000021221C0000E010080810E0000000312244
:100A100022110F00000000C0C000000000000030E4
:100A20003000000000000080000000000000806036
:100A300000000000000080402010080000010204B7
:100A4000081020004040404040404000040404049E
:100A5000040404000008102040800000002010085A
:100A600004020100007048080808F000000000308F
:100A700036010000C030C828E810E000071827241D
:100A800023140B000000C038E0000000203C2302CB
:100A90000227382008F8888888700000203F20202E
:100AA00020110E00C0300808080838000718202060
:100AB0002010080008F808080810E000203F202057
:100AC00020100F0008F88888E8081000203F202038
:100AD0002320180008F88888E8081000203F20002C
:100AE00003000000C0300808083800000718202064
:100AF000221E020008F808000008F808203F210123
:100B000001213F20000808F8080800000020203FCD
:100B10002020000000000808F8080800C08080803D
:100B20007F00000008F888C028180800203F200136
:100B30002638200008F8080000000000203F202090
:100B40002020300008F8F800F8F80800203F003FA7
:100B5000003F200008F830C00008F808203F2000BF
:100B600007183F00E01008080810E0000F102020D0
:100B700020100F0008F808080808F000203F2101A5
:100B800001010000E01008080810E0000F182424FC
:100B900038504F0008F8888888887000203F20006F
:100BA000030C302000708808080838000038202125
:100BB00021221C00180808F8080818000000203F2F
:100BC0002000000008F808000008F808001F202096
:100BD00020201F000878880000C838080000073867
:100BE0000E010000F80800F80008F800033C0700B8
:100BF000073C0300081868808068180820302C0320
:100C0000032C30200838C800C83808000000203FF6
:100C10002000000010080808C838080020382621E5
:100C200020201800000000FE020202000000007FE9
:100C300040404000000C30C00000000000000001F7
:100C40000638C00000020202FE00000000404040E2
:100C50007F00000000000402020204000000000007
:100C60000000000000000000000000008080808084
:100C7000808080800002020400000000000000006C
:100C80000000000000008080808000000019242205
:100C900022223F2008F8008080000000003F112041
:100CA00020110E000000008080800000000E112046
:100CB00020201100000000808088F800000E112024
:100CC00020103F200000808080800000001F222232
:100CD00022221300008080F0888888180020203F9E
:100CE000202000000000808080808000006B9494B1
:100CF0009493600008F8008080800000203F21006D
:100D000000203F2000809898000000000020203F35
:100D100020200000000000809898000000C0808023
:100D2000807F000008F8000080808000203F2402BF
:100D30002D302000000808F8000000000020203FAF
:100D4000202000008080808080808000203F200064
:100D50003F20003F8080008080800000203F2100F5
:100D600000203F200000808080800000001F2020A5
:100D700020201F00808000808000000080FFA120D4
:100D800020110E000000008080808000000E1120E5
:100D900020A0FF80808080008080800020203F2174
:100DA0002000010000008080808080000033242427
:100DB00024241900008080E0808000000000001FD3
:100DC000202000008080000000808000001F202084
:100DD00020103F20808080000080808000010E3045
:100DE0000806010080800080008080800F300C03A6
:100DF0000C300F0000808000808080000020312EA9
:100E00000E312000808080000080808080818E7084
:100E10001806010000808080808080000021302C36
:100E20002221300000000000807C0202000000004F
:100E3000003F404000000000FF00000000000000F4
:100E4000FF0000000002027C800000000040403FE4
:100E5000000000000006010102020404000000007E
:100E600000000000840E0008000000201C000000AC
:100E70003C080008A00E00081C000020040400002C
:100E80004C0800080000000000000000007A030A7F
:100E9000000000000000000001020304060708092A
:040000050800018965
:00000001FF
