:020000040800F2
:1000000020040020A1010008B5090008AD0900087E
:10001000B1090008FF060008510B000800000000AD
:10002000000000000000000000000000D9090008E6
:10003000B108000800000000B7090008C90A00085C
:10004000BB010008BB010008BB010008BB010008A0
:10005000BB010008BB010008BB010008BB01000890
:10006000BB010008BB010008BB010008BB01000880
:10007000BB010008BB010008BB010008BB01000870
:10008000BB010008BB010008BB010008BB01000860
:10009000BB010008BB010008BB010008BB01000850
:1000A000BB010008BB010008BB010008BB01000840
:1000B000BB010008BB010008BB010008BB01000830
:1000C000BB010008BB010008BB010008BB01000820
:1000D000BB010008BB010008BB010008BB01000810
:1000E000BB010008BB010008BB010008BB01000800
:1000F000BB010008BB010008BB010008BB010008F0
:10010000BB010008BB010008BB010008BB010008DF
:10011000BB010008BB010008BB010008BB010008CF
:10012000C5070008BB010008BB010008BB010008AF
:10013000BB010008BB010008BB010008BB010008AF
:10014000BB010008BB010008BB010008BB0100089F
:10015000BB010008BB010008BB010008BB0100088F
:10016000BB010008BB010008BB010008BB0100087F
:10017000BB010008BB010008BB010008BB0100086F
:10018000BB010008BB010008DFF810D000F088F9BF
:1001900000480047750B0008AFF3008020040020E2
:1001A0000648804706480047FEE7FEE7FEE7FEE711
:1001B000FEE7FEE7FEE7FEE7FEE7FEE7D10A0008FE
:1001C000890100082DE9FE4F81EA030404F0004490
:1001D00021F0004100944FF0000B23F0004350EA5F
:1001E00001045ED052EA03045BD0C3F30A54C1F3A6
:1001F0000A552C44A4F2F3340194A0FB0254C1F339
:10020000130141F48011C3F3130343F4801301FB82
:10021000024400FB034E840A970A44EA815447EAE9
:100220008357A4FB076802958D0A05FB07854FEAF3
:10023000932C04FB0C542705029D4FEA065847EA0D
:100240001637B5EB08056EEB070C870E920E47EAE2
:10025000811742EA8312A7FB0201B6EB0B0164EBA4
:1002600000042B0D43EA0C335E1844EB1C50DA46B5
:100270005146E7FB0201C5F313044FEA0B3343EA8F
:1002800014534FEA0432019C43EA0603A4F10C0420
:100290000294009CCDE900B400F0B3F803B0BDE8CF
:1002A000F08F00200146F9E72DE9F04D81EA0304C3
:1002B00004F0004B21F0004514464FF0000A23F0F3
:1002C000004150EA050220D054EA01021DD0C5F3D6
:1002D0000A570246C5F31303C1F31300C1F30A56CC
:1002E00040F4801543F48013A7EB0608101BD64694
:1002F00008F2FD3873EB050002D308F1010801E0B4
:1003000092185B41B8F1000F03DA00200146BDE806
:10031000F08D00204FF48011064684460EE0171B36
:1003200073EB050705D3121B63EB050306434CEA89
:10033000010C49084FEA300092185B4150EA01076E
:10034000EDD152EA030012D082EA040083EA0501EB
:10035000084305D0101BAB4106D20122002306E062
:1003600000224FF0004302E06FF0010253101AEB3D
:1003700006004CEB085110EB0A0041EB0B01BDE805
:10038000F04D00F02FB870B5C1F30A5201F00045EE
:100390000024C1F3130140F2FF3341F480119A426B
:1003A00001DA002070BD40F233439A42A2F2334298
:1003B00003DC524200F006F800E090402C43F1D0FC
:1003C000404270BD202A04DB203A21FA02F00021CD
:1003D000704721FA02F3D040C2F120029140084355
:1003E0001946704710B5141E73F1000408DA401C5A
:1003F00041F1000192185B411A4301D120F0010044
:1004000010BD2DE9F04D92469B4611B1B1FA81F233
:1004100002E0B0FA80F22032904600F053F8044631
:100420000F4640EA0A0041EA0B0153465A46084388
:1004300013D0114653EA010019D0C8F140025046CA
:10044000FFF7C0FF05460E4650465946424600F0AB
:1004500039F8084305D0012004E020463946BDE8BC
:10046000F08D0020054346EAE0762C4337430A9896
:100470006305E40AA0EB08000022FD0A44EA4754A1
:100480000A3002D500200146E9E70105101969414B
:10049000DDE9084500196941BDE8F04DA2E700001B
:1004A000064C074D06E0E06840F0010394E80700C1
:1004B00098471034AC42F6D3FFF76AFE9C0B000855
:1004C000BC0B0008202A04DB203A00FA02F10020CD
:1004D00070479140C2F1200320FA03F31943904082
:1004E0007047000070B504462021124800F05AFA07
:1004F00044F48855002616E002210E4800F052FA16
:1005000005F4004020B108210A4800F04DFA03E04C
:100510000821084800F046FA0221064800F044FA93
:100520006D00701CC6B2102EE6DB2021014800F0E1
:100530003BFA70BD0014024010B50122510312486D
:1005400000F0E0F801220221104800F0DBF801225F
:1005500008210E4800F0D6F8012220210B4800F0B7
:10056000D1F84FF40051084800F01EFA2021074846
:1005700000F01AFA0221054800F014FA0821034895
:1005800000F010FA10BD0000000802400014024004
:100590002DE9F0472DED068BB0EE408AF0EE608A33
:1005A00007460E4692469FED320BB0EE40AAF0EEA3
:1005B00060AAB0EE489AF0EE689A9FED2F0B53ECCC
:1005C000102B51EC190BFFF76FFE41EC190B53EC9C
:1005D0001A2B51EC190BFFF7F5FD41EC190B51ECFF
:1005E000190BFFF7D0FE80464446C4F30D044FEAD2
:1005F000A835C5F30D054AF440494FF4807000F06A
:100600003FF84FF4045000F03BF86FB944F48044D5
:1006100045F48045A0B200F033F8A8B200F030F8FD
:100620001FFA89F000F02CF8012F0DD144F400449A
:1006300045F40045A0B200F023F8A8B200F020F87D
:100640001FFA89F000F01CF81EB942F2020000F017
:1006500017F8022E03D142F2280000F011F8012E03
:1006600002D1700300F00CF8BDEC068BBDE8F087FA
:1006700000000040E17A64410000000080842E41C7
:1006800070B504460221164800F08EF94FF400516F
:10069000144800F087F9002519E004F4004020B167
:1006A00008210F4800F080F903E008210C4800F011
:1006B00079F902210A4800F075F90221084800F092
:1006C00073F94FF6FF7000EA4404681CC5B2102DA0
:1006D000E3DB4FF40051034800F066F970BD000001
:1006E000001402400008024021B1826842F0010279
:1006F000826003E0826822F001028260704700BFDE
:10070000FEE700007CB504460D46164626488442A6
:1007100004D10121084600F04FF92EE0234884421D
:1007200004D10121022000F047F926E0204884424C
:1007300004D10121042000F03FF91EE01D4884424D
:1007400004D10121082000F037F916E01A4884424C
:1007500004D10121102000F02FF90EE01748844247
:1007600004D10121202000F027F906E0144884423A
:1007700003D10121402000F01FF9009502208DF8DF
:10078000050000208DF8060001208DF80700012EDD
:1007900002D18DF8040002E000208DF804006946C3
:1007A000204600F0B7F87CBD000002400004024083
:1007B00000080240000C02400010024000140240F9
:1007C0000018024010B50A490A4800F03FF870B11D
:1007D0000749084800F014F800210748FFF784FF94
:1007E0000021044800F026F801200449088010BDCB
:1007F000208000101064024000200140040000200E
:100800000246094B9A4201D2084801E006481038D6
:1008100001F000531BB1064B0B40C36002E0044BD8
:100820000B4083607047000010640240006002408B
:100830007D0F7D0F21B1026842F00102026003E0EA
:10084000026822F0010202607047000070B50246A3
:10085000002000240025124EB24201D2114B01E0CB
:100860000F4B103B104E0E4036B11E2606EAD12427
:10087000166806EA040502E0566906F0800501F0F4
:1008800000560EB15C6800E01C68084E344004EA73
:10089000010616B10DB1012000E0002070BD00007E
:1008A00010640240006002403C0F3C0F7D0F7D0F42
:1008B0007047000030B513480068134AB0FBF2F1EE
:1008C000481EB0F1807F00D31BE0481E4FF0E022AD
:1008D000506150170F22002807DA13071D0E0B4B2B
:1008E00000F00F04241F1D5503E013071C0E084BD6
:1008F0001C5400BF00204FF0E022906107201061DF
:1009000000BF30BD0800002040420F0018ED00E09D
:1009100000E400E0F0B50A4600210023002400BFF7
:100920003DE0012505FA01F3156805EA03049C4240
:1009300034D105684F000326BE40B54305601579E4
:100940004E00B5400668354305601579012D02D08B
:100950001579022D16D185684F000326BE40B54398
:10096000856055794E00B540866835438560456899
:1009700001268E40B5434560456896798E40B6B2F3
:1009800035434560C5684F000326BE40B543C5608A
:10099000D5794E00B540C6683543C560491C10295D
:1009A000BFD3F0BD418370470183704700BFFEE7AE
:1009B00000BFFEE77047704729B1064A126802433C
:1009C000044B1A6004E0034A12688243014B1A6028
:1009D0007047000030380240704700000CB500201E
:1009E000019000903448006840F48030324908603B
:1009F00000BF3148006800F4003000900198401CAE
:100A00000190009818B90198B0F5A04FF1D12A488B
:100A1000006800F4003010B10120009001E00020D7
:100A200000900098012846D123484030006840F0EB
:100A300080502149403108602048006840F440401F
:100A40001E4908601C48083000681B4908310860CE
:100A50000846006840F4004008600846006840F41A
:100A6000A05008601648091F0860081F006840F081
:100A70008070091F086000BF0F48006800F0007018
:100A80000028F9D040F205700E4908600A48083085
:100A9000006820F003000849083108600846006833
:100AA00040F00200086000BF03480830006800F012
:100AB0000C000828F8D10CBD00380240007000403E
:100AC00008544007003C024010B500F035F810BD56
:100AD00010B51548006840F47000134908601348C9
:100AE000006840F001001149086000200F490831FA
:100AF00008600E4800680E4908400C4908600D481F
:100B0000091D0860081F006820F48020091F086084
:100B1000002006490C310860FFF760FF4FF00060CD
:100B200001498039086010BD88ED00E000380240BE
:100B3000FFFFF6FE103000240448006820B103488F
:100B40000068401E01490860704700000000002056
:100B500000BFFEE702E008C8121F08C1002AFAD150
:100B600070477047002001E001C1121F002AFBD12D
:100B700070470000FFF79EFEFFF7DEFC0022012118
:100B800010469FED040BFFF703FD5020FFF7AAFC72
:100B900000BFFEE7000000000088C340BC0B000857
:100BA000000000201C000000540B0008D80B0008B7
:100BB0001C00002004040000640B0008000000007A
:100BC00000000000007A030A00000000000000009E
:080BD0000102030406070809F5
:040000050800018965
:00000001FF
